:1000000010C02BC02AC029C028C027C058C125C095
:1000100024C023C022C021C020C01FC01EC01DC0DC
:100020001CC011241FBECFE5D2E0DEBFCDBF11E062
:10003000A0E6B0E0E0E4F0E103C0C89531960D928F
:10004000AE33B107D1F711E0AEE3B1E001C01D92CC
:10005000A734B107E1F75FD2F1C7D2CFFFCF89B99B
:100060008BE18AB9089583B7816083BF88ED82BF31
:1000700008958EB58A608EBD1DBC1CBC80E197E2E0
:100080009BBD8ABD89B7806189BF0895379A86B1C3
:10009000856086B917B808955F9BFECF8CB108952F
:1000A0005D9BFECF8CB90895E82FF92FAE2FBF2F9F
:1000B0000D900020E9F71197AE1BBF0B20E030E058
:1000C0000AC0E82FF92FE20FF31FE0815D9BFECFFE
:1000D000ECB92F5F3F4F2A173B0798F308958F9293
:1000E0009F92AF92BF92CF92DF92EF92FF920F93C7
:1000F0001F93DF93CF93CDB7DEB7E2970FB6F89497
:10010000DEBF0FBECDBFC82ED92EEE24FF24AC2EED
:10011000BD2E0894A11CB11C80E6882E80E0982E8C
:1001200048C08DB79EB708970FB6F8949EBF0FBE14
:100130008DBFEDB7FEB73196ADB7BEB71296BC9284
:10014000AE9211979382828215830483AC2DBD2DCC
:10015000A00FB11F8C918683178260D48DB79EB794
:1001600008960FB6F8949EBF0FBE8DBF8A2D9B2DAB
:100170009BDF0330110519F48DE690E095DF0F5FEA
:100180001F4F0830110569F697E0E916F10419F0E0
:1001900080E790E002C08FE990E086DF0894E11CE0
:1001A000F11CA8E0B0E0CA0EDB1EB8E0EB16F104CB
:1001B00019F000E010E0B5CFE2960FB6F894DEBF7C
:1001C0000FBECDBFCF91DF911F910F91FF90EF90A8
:1001D000DF90CF90BF90AF909F908F9008958F92B7
:1001E0009F92AF92BF92DF92EF92FF920F931F9375
:1001F000DF93CF93CDB7DEB72A970FB6F894DEBF63
:100200000FBECDBFE82EF92E00E010E0AC2EBD2EC3
:100210000894A11CB11C90ED892E90E0992ED02E4F
:1002200007B9369A3699FECF84B195B16AEF70E07E
:10023000CDD36FE770E0DCD3AE2DBF2D6C9300D033
:1002400000D000D0EDB7FEB73196ADB7BEB712966D
:10025000BC92AE9211979382828264831582DED320
:10026000EDB7FEB736960FB6F894FEBF0FBEEDBFE2
:100270000430110514F482E003C0FCEFDF0E8AE0C5
:100280006D2D1CD38A2D9B2D4ED30F5F1F4F0894CD
:10029000E11CF11C0830110511F62A960FB6F894EE
:1002A000DEBF0FBECDBFCF91DF911F910F91FF90A9
:1002B000EF90DF90BF90AF909F908F9008951F9226
:1002C0000F920FB60F9211240F931F932F933F930A
:1002D0004F935F936F937F938F939F93AF93BF934E
:1002E000EF93FF93DF93CF93CDB7DEB7CA57D040DC
:1002F000DEBFCDBF80913E01883090F0609141011A
:10030000709142018C2F9D2FCB966034710518F0AF
:100310006054704002C060EC7FE740E450E005D2DA
:100320000C2F1D2F0F5F1F4F802F912F58DF8091B3
:10033000410190914201602F712F48E050E0A1D11E
:1003400080913E01883070F110923E0100D000D0C3
:1003500000D0EDB7FEB731960C2F1D2F075F1F4F52
:10036000ADB7BEB712961C930E93119784ED90E033
:100370009383828380914101909142018054904007
:10038000958384834BD38DB79EB706960FB6F894AA
:100390009EBF0FBE8DBF802F912F86DE8C2F9D2F8D
:1003A000CB969DDE80913E018F5F80933E018091D0
:1003B00041019091420197FD02C0089601C0ADD065
:1003C0009093420180934101C658DF4FDEBFCDBFFD
:1003D000CF91DF91FF91EF91BF91AF919F918F915D
:1003E0007F916F915F914F913F912F911F910F914D
:1003F0000F900FBE0F901F901895CF92DF92EF9243
:10040000FF920F931F93DF93CF9300D000D0CDB70F
:10041000DEB78091EC009091ED00A091EE00B091DC
:10042000EF0089839A83AB83BC835AD200E010E04B
:10043000EC2EFD2E0894E11CF11C28EEC22E20E0CB
:10044000D22E00D000D000D0EDB7FEB73196ADB7B8
:10045000BEB71296FC92EE921197D382C282158398
:100460000483DCD28DB79EB706960FB6F8949EBF74
:100470000FBE8DBF043011051CF480E0602F03C057
:10048000602F645088E01AD28E2D9F2D4CD20F5FC2
:100490001F4F08301105A9F60F900F900F900F9085
:1004A000CF91DF911F910F91FF90EF90DF90CF9050
:1004B000089580EF90E0F8DD89E091E0F5DD10D25D
:1004C00086E391E030D280E197E224E630E0E22F4B
:1004D000F32F3197F1F70197D1F70895F89489E157
:1004E00089B98BE18AB98CE03AD2E3DF8FEF84BB24
:1004F0001ABA379A86B1856086B917B827D039D02D
:100500000CD0909342018093410110923E0175DF1F
:10051000B0DD78940895E2DFFFCF2091450130915E
:100520004601822F932F089520913F013091400181
:10053000822F932F089520913F0130914001280F81
:10054000391F3093400120933F01089510924601D6
:10055000109245011092400110923F018091450197
:1005600090914601805090489093440180934301BC
:10057000089587B3806B87BBC49A80E58DB90895D1
:10058000C49886E08FB9779BFECF8FB1C49A089547
:100590008FB9779BFECF8FB10895C49885E08FB94E
:1005A000779BFECF8FB18FEF8FB9779BFECF2FB1A7
:1005B00030E022703070822F932F0895DF93CF9315
:1005C00000D0CDB7DEB79A838983982F8A818FB9FF
:1005D000779BFECF8FB19FB9779BFECF8FB10F90E6
:1005E0000F90CF91DF910895EF92FF920F931F9399
:1005F000CF93DF93C0E0D0E092E0E92E86E6F82EBC
:1006000008E813E1BDDFC498EFB8779BFECF8FB148
:100610008C2F9D2FD3DF80E090E0FFB8779BFECF3B
:100620002FB1019680349105C1F7C49AC598802FE7
:10063000912F0197F1F7C05CDF4FE4CFCF93DF93A9
:10064000C82FD92F97FF02C080E018C099DFC49847
:1006500082E08FB9779BFECF8FB18C2F9D2FAEDFBD
:1006600080E090E026E62FB9779BFECF3FB1019660
:1006700080349105C1F7C49AC59881E0DF91CF918C
:100680000895EF92FF920F931F93CF93DF93082F5C
:10069000192FC62FD72FE42EF52E97FD1FC04134FA
:1006A0005105E0F46DDFC49882E08FB9779BFECFEF
:1006B0008FB1802F912F82DF20E030E008C0888149
:1006C0008FB9779BFECF8FB121962F5F3F4F2E15AD
:1006D0003F05A8F3C49AC59881E001C080E0DF918E
:1006E000CF911F910F91FF90EF9008951F93CF939B
:1006F000DF93C82FD92F162F97FF02C080E011C0BB
:100700003FDFC49882E08FB9779BFECF8FB18C2FEB
:100710009D2F54DF1FB9779BFECF8FB1C49AC59828
:1007200081E0DF91CF911F9108950F931F93CF9395
:10073000DF93082F192FC42FD52F77FD22C0413406
:100740005105F8F4C49883E08FB9779BFECF8FB141
:10075000862F972F33DF20E030E09FEF0BC09FB94B
:10076000779BFECF8FB1E02FF12F81930E2F1F2F9C
:100770002F5F3F4F2C173D0790F3C49AC59881E037
:1007800001C080E0DF91CF911F910F910895282F34
:10079000392F842F952F860F971F8150904840F452
:1007A0004134510528F4822F932FBFDF81E0089553
:1007B00080E00895282F392F97FF02C080E0089528
:1007C000C49883E08FB9779BFECF8FB1822F932F90
:1007D000F5DE8FEF8FB9779BFECF8FB1C49AC598A6
:1007E0000895662311F0C09A01C0C098C1988C9AF0
:1007F0008D9A8E9A8F9A979896989598949887FD47
:10080000979A86FD969A85FD959A84FD949AC29A48
:1008100000C0C298979896989598949883FD979A57
:1008200082FD969A81FD959A80FD949AC29A00C0A5
:10083000C298949A959A969A979A0895882311F057
:10084000C09A01C0C098C19A8C988D988E988F9844
:10085000C29A00C0849B02C080E101C080E08599FB
:1008600080628699806487998068C29800C0C29A25
:1008700000C0849981608599826086998460879997
:100880008860C298089580E0D9DF87FDFCCF82E0C0
:1008900090E00197F1F780E0D1DF08951F93182FC2
:1008A000F2DF812F60E09DDF1F9108951F93182FC5
:1008B000EADF812F61E095DF1F910895662311F42F
:1008C000805809C0613011F4805405C0623011F4C1
:1008D000805701C08053E2DF0895D5DF90E008958E
:1008E00081E0DCDF089582E0D9DF08951F93182F9F
:1008F000CADF982F1A3091F4803110F480E40BC0D5
:100900008054803110F480E106C09051903310F093
:1009100080E001C080E58058C1DF03C0812F61E025
:1009200060DF1F910895CF93DF93C82FD92F01C0A7
:10093000DDDF89918823E1F7DF91CF910895CF938F
:10094000DF93C82FD92F01C0D1DFEC2FFD2F2196C7
:10095000C895802D8823C1F7DF91CF9108951F930B
:10096000182FB89AB99ABA9A8C9A8D9A8E9A8F9AA9
:1009700080E89EE30197F1F7959A949AC29A00C095
:10098000C29880E893E10197F1F7C29A00C0C2983B
:1009900080E490E0E82FF92F3197F1F7C29A00C078
:1009A000C298E82FF92F3197F1F79498C29A00C0B6
:1009B000C2980197F1F788E271DF88E06FDF90DF7E
:1009C00086E06CDF812F6ADF1F9108955527002490
:1009D00080FF02C0060E571F660F771F6115710555
:1009E00021F096958795009799F7952F802D08957A
:1009F000AA1BBB1B51E107C0AA1FBB1FA617B70745
:100A000010F0A61BB70B881F991F5A95A9F7809560
:100A10009095682F792F8A2F9B2F0895AEE0B0E034
:100A2000E3E1F5E0E1C20D891E8986E08C831A833B
:100A300009838FEF9FE79E838D832C2F3D2F275EA9
:100A40003F4F8C2F9D2F01966F89788D422F532F0A
:100A50000AD02F813885020F131FE02FF12F10824B
:100A60002E96E4E0DDC2ABE0B0E0E8E3F5E0AEC234
:100A7000882E992E462E572EA42EB52EE82FF92F0C
:100A800017821682838181FD03C06FEF7FEFEDC176
:100A90002C2E3D2E0894211C311C9FE3692EE82D3D
:100AA000F92D3381E42DF52D33FDC89533FF0080FA
:100AB0003196802D4E2E5F2E882309F4D2C18532C7
:100AC00051F433FDC89533FF00803196802D4E2EB2
:100AD0005F2E853229F490E0682D792DE4D1DFCFA7
:100AE000982FFF24EE247724FFE1FF15D0F09B32EE
:100AF00069F09C3228F4903259F0933291F40EC090
:100B00009D3249F0903369F441E02AC052E0F52A61
:100B100084E0F82A2EC098E0F92A2BC0E0E1FE2AF2
:100B200028C0F7FC33C0292F20532A30A0F4F6FE4A
:100B300008C0872D90E06AE070E048DF782E720EE2
:100B400018C08E2D90E06AE070E040DFE82EE20EE3
:100B5000F0E2FF2A0EC09E3229F4F6FC82C140E486
:100B6000F42A07C09C3619F450E8F52A02C09836DA
:100B700069F4E42DF52D33FDC89533FF00803196DF
:100B8000902D4E2E5F2E992309F0AECF892F8554DC
:100B9000833018F08052833030F444E050E0A40EEB
:100BA000B51E698210C0933631F0933789F09335C2
:100BB00009F060C024C0EA2DFB2D8081898342E0CA
:100BC00050E0A40EB51EC22CD32C01E010E014C0DE
:100BD000EA2DFB2DC080D180F6FC03C06FEF7FEFC4
:100BE00002C0672D70E042E050E0A40EB51E8C2DCF
:100BF0009D2D4DD1082F192F5FE7F52216C0EA2D44
:100C0000FB2DC080D180F6FC03C06FEF7FEF02C0E8
:100C1000672D70E042E050E0A40EB51E8C2D9D2D96
:100C200029D1082F192F50E8F52AF3FE07C01EC05E
:100C300080E290E0682D792D36D1EA948E2D90E0F7
:100C400008171907A8F312C0EC2DFD2DF7FCC89565
:100C5000F7FE00803196802DCE2EDF2E90E0682D9D
:100C6000792D21D1E110EA940150104001151105B0
:100C700059F7F4C0943611F0993691F5F7FE09C092
:100C8000EA2DFB2D208131814281538184E090E067
:100C90000CC0EA2DFB2D80819181282F392F44270C
:100CA00037FD4095542F82E090E0A80EB91E9FE6D4
:100CB000F92257FF09C050954095309521953F4F37
:100CC0004F4F5F4FE0E8FE2A952F842F732F622F3E
:100CD000422D532D2AE030E015D1D82ED21843C032
:100CE000953729F41F2D1F7E2AE030E01DC01F2DEF
:100CF000197F9F3661F0903720F4983509F0B1C024
:100D00000FC0903739F0983709F0ABC004C028E025
:100D100030E00AC0106114FD146020E130E004C02E
:100D200014FD166020E132E017FF09C0EA2DFB2D0B
:100D3000608171818281938144E050E00AC0EA2D94
:100D4000FB2D80819181682F792F80E090E042E037
:100D500050E0A40EB51E422D532DD4D0D82ED2185B
:100D60008FE7F82EF122F6FE0BC05EEFF522D714C6
:100D700038F4F4FE07C0F2FC05C08FEEF82202C082
:100D80001D2D01C0172DF4FE0EC0EC2FFD2FED0D13
:100D9000F11D8081803319F499EEF92208C01F5F9C
:100DA000F2FE05C003C08F2D867809F01F5F0F2D5E
:100DB000F3FC14C0F0FE0FC01E1510F07D2C0BC00C
:100DC0007D2C7E0C711A1E2D06C080E290E0682DED
:100DD000792D69D01F5F1E15C0F304C01E1510F4D5
:100DE000E11A01C0EE2404FF0FC080E390E0682DFB
:100DF000792D59D002FF1DC001FD03C088E790E0A6
:100E00000EC088E590E00BC0802F867891F001FF3E
:100E100002C08BE201C080E2F7FC8DE290E0682D19
:100E2000792D41D006C080E390E0682D792D3BD02C
:100E30007A94D714C0F3DA94E22DF32DED0DF11D61
:100E4000808190E0682D792D2ED0DD20A1F706C09D
:100E500080E290E0682D792D26D0EA94EE20C1F74B
:100E60001ECEE82DF92D66817781862F972F2B9640
:100E7000E2E1C8C0E82FF92FC89531966150704063
:100E80000110D0F7809590958E0F9F1F0895E82F41
:100E9000F92F6150704001900110D8F7809590951E
:100EA0008E0F9F1F08950F931F93CF93DF93082FEB
:100EB000192FC62FD72F8B8181FF1BC082FF0DC03A
:100EC0002E813F818C819D812817390764F4E88148
:100ED000F9810193F983E88306C0E885F985802FBD
:100EE0000995892B31F48E819F8101969F838E8392
:100EF00002C00FEF1FEF802F912FDF91CF911F9135
:100F00000F910895E42FF52FAA27283069F1203199
:100F100099F1E8946F936E7F6E5F7F4F8F4F9F4F75
:100F2000AF4FB1E041D0B4E03FD0670F781F891FC9
:100F30009A1FA11D680F791F8A1F911DA11D6A0F9D
:100F4000711D811D911DA11D23D009F468943F914D
:100F5000062E000C3019000C000C3019305D319356
:100F6000CEF68E2F9F2F0895462F4770405D4193F8
:100F7000B3E00FD0C9F7F5CF462F4F70405D4A332D
:100F800018F0495D31FD4052419302D0A9F7E9CFF5
:100F9000B4E0A6959795879577956795BA95C9F723
:100FA0000097610571050895262F372F482F592F77
:100FB0000A2E06945795479537952795BA95C9F700
:100FC000620F731F841F951FA01D08952F923F92DB
:100FD0004F925F926F927F928F929F92AF92BF9249
:100FE000CF92DF92EF92FF920F931F93CF93DF93F5
:100FF000CDB7DEB7CA1BDB0B0FB6F894DEBF0FBE52
:10100000CDBF09942A88398848885F846E847D849E
:101010008C849B84AA84B984C884DF80EE80FD80A0
:101020000C811B81AA81B981CE0FD11D0FB6F89416
:10103000DEBF0FBECDBFCA2FDB2F0895F894FFCFC0
:1010400025693A20253364206D562020000D0A00C2
:101050000D0A2D2D2D2D2D2D2D2D2D2D2D2D2D2D03
:101060002D2D2D2D2D2D2D2D2D2D2D2D2D2D2D2DB0
:101070002D2D2D2D2D2D2D2D2D2D2D2D0D0A000D30
:101080000A2A2A2A2A2A2A2A2A2A2A2A2A2A2A2AE0
:101090002A2A2A2A2A2A2A2A2A2A2A2A2A2A2A2AB0
:1010A0002A2A2A2A2A2A2A2A2A2A2A0D0A0D0A0044
:1010B00025336400656570726F6D5F706F696E7463
:1010C00065722025580D0A0025643A0000000000D2
:1010D0002020202020202020202020202020202010
:1010E00048656C6C6F210D0A002D2D2D2D2D2D2D99
:1010F0002D2D2D2D2D2D2D2D2D2D2D2D2D2D2D2D20
:101100002D2D2D2D2D2D2D2D2D2D2D2D2D2D2D2D0F
:0E1110002D2D2D0A0D0048656C6C6F2100001E
:00000001FF
